{
  "_format": "hh-sol-artifact-1",
  "contractName": "EmployeeExperience",
  "sourceName": "contracts/EmployeeExperience.sol",
  "abi": [
    {
      "inputs": [],
      "stateMutability": "nonpayable",
      "type": "constructor"
    },
    {
      "anonymous": false,
      "inputs": [
        {
          "indexed": false,
          "internalType": "address",
          "name": "admin",
          "type": "address"
        }
      ],
      "name": "AdminRegistered",
      "type": "event"
    },
    {
      "anonymous": false,
      "inputs": [
        {
          "indexed": false,
          "internalType": "bytes32",
          "name": "key",
          "type": "bytes32"
        },
        {
          "indexed": false,
          "internalType": "string",
          "name": "empId",
          "type": "string"
        },
        {
          "indexed": false,
          "internalType": "string",
          "name": "_name",
          "type": "string"
        },
        {
          "indexed": false,
          "internalType": "string",
          "name": "_company",
          "type": "string"
        },
        {
          "indexed": false,
          "internalType": "string",
          "name": "_startDate",
          "type": "string"
        },
        {
          "indexed": false,
          "internalType": "string",
          "name": "_endDate",
          "type": "string"
        },
        {
          "indexed": false,
          "internalType": "string",
          "name": "_pfNumber",
          "type": "string"
        }
      ],
      "name": "ExperienceAdded",
      "type": "event"
    },
    {
      "anonymous": false,
      "inputs": [
        {
          "indexed": false,
          "internalType": "bytes32",
          "name": "key",
          "type": "bytes32"
        }
      ],
      "name": "ExperienceUpdated",
      "type": "event"
    },
    {
      "inputs": [
        {
          "internalType": "string",
          "name": "_empId",
          "type": "string"
        },
        {
          "internalType": "string",
          "name": "_name",
          "type": "string"
        },
        {
          "internalType": "string",
          "name": "_company",
          "type": "string"
        },
        {
          "internalType": "string",
          "name": "_startDate",
          "type": "string"
        },
        {
          "internalType": "string",
          "name": "_endDate",
          "type": "string"
        },
        {
          "internalType": "string",
          "name": "_pfNumber",
          "type": "string"
        }
      ],
      "name": "addExperience",
      "outputs": [
        {
          "internalType": "bytes32",
          "name": "",
          "type": "bytes32"
        }
      ],
      "stateMutability": "nonpayable",
      "type": "function"
    },
    {
      "inputs": [
        {
          "internalType": "address",
          "name": "_newSuperAdmin",
          "type": "address"
        }
      ],
      "name": "changeSuperAdmin",
      "outputs": [],
      "stateMutability": "nonpayable",
      "type": "function"
    },
    {
      "inputs": [
        {
          "internalType": "bytes32",
          "name": "_key",
          "type": "bytes32"
        }
      ],
      "name": "getExperience",
      "outputs": [
        {
          "internalType": "string",
          "name": "",
          "type": "string"
        },
        {
          "internalType": "string",
          "name": "",
          "type": "string"
        },
        {
          "internalType": "string",
          "name": "",
          "type": "string"
        },
        {
          "internalType": "string",
          "name": "",
          "type": "string"
        },
        {
          "internalType": "string",
          "name": "",
          "type": "string"
        },
        {
          "internalType": "string",
          "name": "",
          "type": "string"
        }
      ],
      "stateMutability": "view",
      "type": "function"
    },
    {
      "inputs": [
        {
          "internalType": "address",
          "name": "_newAdmin",
          "type": "address"
        }
      ],
      "name": "registerAdmin",
      "outputs": [],
      "stateMutability": "nonpayable",
      "type": "function"
    },
    {
      "inputs": [
        {
          "internalType": "bytes32",
          "name": "_key",
          "type": "bytes32"
        },
        {
          "internalType": "string",
          "name": "_empId",
          "type": "string"
        },
        {
          "internalType": "string",
          "name": "_newCompany",
          "type": "string"
        },
        {
          "internalType": "string",
          "name": "_newStartDate",
          "type": "string"
        },
        {
          "internalType": "string",
          "name": "_newEndDate",
          "type": "string"
        },
        {
          "internalType": "string",
          "name": "_newPfNumber",
          "type": "string"
        }
      ],
      "name": "updateExperience",
      "outputs": [],
      "stateMutability": "nonpayable",
      "type": "function"
    }
  ],
  "bytecode": "0x6080604052348015600f57600080fd5b5033600360006101000a81548173ffffffffffffffffffffffffffffffffffffffff021916908373ffffffffffffffffffffffffffffffffffffffff1602179055506001806000600360009054906101000a900473ffffffffffffffffffffffffffffffffffffffff1673ffffffffffffffffffffffffffffffffffffffff1673ffffffffffffffffffffffffffffffffffffffff16815260200190815260200160002060006101000a81548160ff021916908315150217905550611dd1806100d96000396000f3fe608060405234801561001057600080fd5b50600436106100575760003560e01c806341858c4b1461005c578063906d231114610078578063b064968914610094578063c38c5813146100c4578063ebee03bb146100e0575b600080fd5b6100766004803603810190610071919061109b565b610115565b005b610092600480360381019061008d9190611244565b6101e9565b005b6100ae60048036038101906100a9919061135d565b61083f565b6040516100bb91906114a1565b60405180910390f35b6100de60048036038101906100d9919061109b565b610a6d565b005b6100fa60048036038101906100f591906114bc565b610c17565b60405161010c96959493929190611568565b60405180910390f35b600360009054906101000a900473ffffffffffffffffffffffffffffffffffffffff1673ffffffffffffffffffffffffffffffffffffffff163373ffffffffffffffffffffffffffffffffffffffff16146101a5576040517f08c379a000000000000000000000000000000000000000000000000000000000815260040161019c90611665565b60405180910390fd5b80600360006101000a81548173ffffffffffffffffffffffffffffffffffffffff021916908373ffffffffffffffffffffffffffffffffffffffff16021790555050565b600160003373ffffffffffffffffffffffffffffffffffffffff1673ffffffffffffffffffffffffffffffffffffffff16815260200190815260200160002060009054906101000a900460ff16610275576040517f08c379a000000000000000000000000000000000000000000000000000000000815260040161026c906116f7565b60405180910390fd5b3373ffffffffffffffffffffffffffffffffffffffff166002600088815260200190815260200160002060009054906101000a900473ffffffffffffffffffffffffffffffffffffffff1673ffffffffffffffffffffffffffffffffffffffff1614610316576040517f08c379a000000000000000000000000000000000000000000000000000000000815260040161030d90611789565b60405180910390fd5b60008060008881526020019081526020016000206040518060c0016040529081600082018054610345906117d8565b80601f0160208091040260200160405190810160405280929190818152602001828054610371906117d8565b80156103be5780601f10610393576101008083540402835291602001916103be565b820191906000526020600020905b8154815290600101906020018083116103a157829003601f168201915b505050505081526020016001820180546103d7906117d8565b80601f0160208091040260200160405190810160405280929190818152602001828054610403906117d8565b80156104505780601f1061042557610100808354040283529160200191610450565b820191906000526020600020905b81548152906001019060200180831161043357829003601f168201915b50505050508152602001600282018054610469906117d8565b80601f0160208091040260200160405190810160405280929190818152602001828054610495906117d8565b80156104e25780601f106104b7576101008083540402835291602001916104e2565b820191906000526020600020905b8154815290600101906020018083116104c557829003601f168201915b505050505081526020016003820180546104fb906117d8565b80601f0160208091040260200160405190810160405280929190818152602001828054610527906117d8565b80156105745780601f1061054957610100808354040283529160200191610574565b820191906000526020600020905b81548152906001019060200180831161055757829003601f168201915b5050505050815260200160048201805461058d906117d8565b80601f01602080910402602001604051908101604052809291908181526020018280546105b9906117d8565b80156106065780601f106105db57610100808354040283529160200191610606565b820191906000526020600020905b8154815290600101906020018083116105e957829003601f168201915b5050505050815260200160058201805461061f906117d8565b80601f016020809104026020016040519081016040528092919081815260200182805461064b906117d8565b80156106985780601f1061066d57610100808354040283529160200191610698565b820191906000526020600020905b81548152906001019060200180831161067b57829003601f168201915b5050505050815250509050856040516020016106b49190611845565b6040516020818303038152906040528051906020012081600001516040516020016106df9190611845565b6040516020818303038152906040528051906020012014610735576040517f08c379a000000000000000000000000000000000000000000000000000000000815260040161072c906118a8565b60405180910390fd5b6040518060c001604052808781526020018260200151815260200186815260200185815260200184815260200183815250600080898152602001908152602001600020600082015181600001908161078d9190611a7e565b5060208201518160010190816107a39190611a7e565b5060408201518160020190816107b99190611a7e565b5060608201518160030190816107cf9190611a7e565b5060808201518160040190816107e59190611a7e565b5060a08201518160050190816107fb9190611a7e565b509050507f3ec01db0e42b653a474cf78ab36aeb57c3c49f538472164b12ff8e2f52ddd5a78760405161082e91906114a1565b60405180910390a150505050505050565b6000600160003373ffffffffffffffffffffffffffffffffffffffff1673ffffffffffffffffffffffffffffffffffffffff16815260200190815260200160002060009054906101000a900460ff166108cd576040517f08c379a00000000000000000000000000000000000000000000000000000000081526004016108c4906116f7565b60405180910390fd5b6000878787878787426040516020016108ec9796959493929190611b71565b6040516020818303038152906040528051906020012090506040518060c001604052808981526020018881526020018781526020018681526020018581526020018481525060008083815260200190815260200160002060008201518160000190816109589190611a7e565b50602082015181600101908161096e9190611a7e565b5060408201518160020190816109849190611a7e565b50606082015181600301908161099a9190611a7e565b5060808201518160040190816109b09190611a7e565b5060a08201518160050190816109c69190611a7e565b50905050336002600083815260200190815260200160002060006101000a81548173ffffffffffffffffffffffffffffffffffffffff021916908373ffffffffffffffffffffffffffffffffffffffff1602179055507fd184a73760b8ed2dfbd82d83b65fb9ec5ae2633b4c24904543082be60028965a81898989898989604051610a579796959493929190611bda565b60405180910390a1809150509695505050505050565b600160003373ffffffffffffffffffffffffffffffffffffffff1673ffffffffffffffffffffffffffffffffffffffff16815260200190815260200160002060009054906101000a900460ff16610af9576040517f08c379a0000000000000000000000000000000000000000000000000000000008152600401610af0906116f7565b60405180910390fd5b600160008273ffffffffffffffffffffffffffffffffffffffff1673ffffffffffffffffffffffffffffffffffffffff16815260200190815260200160002060009054906101000a900460ff1615610b86576040517f08c379a0000000000000000000000000000000000000000000000000000000008152600401610b7d90611cbf565b60405180910390fd5b60018060008373ffffffffffffffffffffffffffffffffffffffff1673ffffffffffffffffffffffffffffffffffffffff16815260200190815260200160002060006101000a81548160ff0219169083151502179055507fac0f15283d37631c15b481bc07dc402bcfc030956bcd94b5585f71d92e84c3da81604051610c0c9190611cee565b60405180910390a150565b60608060608060608060008060008981526020019081526020016000206040518060c0016040529081600082018054610c4f906117d8565b80601f0160208091040260200160405190810160405280929190818152602001828054610c7b906117d8565b8015610cc85780601f10610c9d57610100808354040283529160200191610cc8565b820191906000526020600020905b815481529060010190602001808311610cab57829003601f168201915b50505050508152602001600182018054610ce1906117d8565b80601f0160208091040260200160405190810160405280929190818152602001828054610d0d906117d8565b8015610d5a5780601f10610d2f57610100808354040283529160200191610d5a565b820191906000526020600020905b815481529060010190602001808311610d3d57829003601f168201915b50505050508152602001600282018054610d73906117d8565b80601f0160208091040260200160405190810160405280929190818152602001828054610d9f906117d8565b8015610dec5780601f10610dc157610100808354040283529160200191610dec565b820191906000526020600020905b815481529060010190602001808311610dcf57829003601f168201915b50505050508152602001600382018054610e05906117d8565b80601f0160208091040260200160405190810160405280929190818152602001828054610e31906117d8565b8015610e7e5780601f10610e5357610100808354040283529160200191610e7e565b820191906000526020600020905b815481529060010190602001808311610e6157829003601f168201915b50505050508152602001600482018054610e97906117d8565b80601f0160208091040260200160405190810160405280929190818152602001828054610ec3906117d8565b8015610f105780601f10610ee557610100808354040283529160200191610f10565b820191906000526020600020905b815481529060010190602001808311610ef357829003601f168201915b50505050508152602001600582018054610f29906117d8565b80601f0160208091040260200160405190810160405280929190818152602001828054610f55906117d8565b8015610fa25780601f10610f7757610100808354040283529160200191610fa2565b820191906000526020600020905b815481529060010190602001808311610f8557829003601f168201915b5050505050815250509050600081602001515111610ff5576040517f08c379a0000000000000000000000000000000000000000000000000000000008152600401610fec90611d7b565b60405180910390fd5b806000015181602001518260400151836060015184608001518560a001519650965096509650965096505091939550919395565b6000604051905090565b600080fd5b600080fd5b600073ffffffffffffffffffffffffffffffffffffffff82169050919050565b60006110688261103d565b9050919050565b6110788161105d565b811461108357600080fd5b50565b6000813590506110958161106f565b92915050565b6000602082840312156110b1576110b0611033565b5b60006110bf84828501611086565b91505092915050565b6000819050919050565b6110db816110c8565b81146110e657600080fd5b50565b6000813590506110f8816110d2565b92915050565b600080fd5b600080fd5b6000601f19601f8301169050919050565b7f4e487b7100000000000000000000000000000000000000000000000000000000600052604160045260246000fd5b61115182611108565b810181811067ffffffffffffffff821117156111705761116f611119565b5b80604052505050565b6000611183611029565b905061118f8282611148565b919050565b600067ffffffffffffffff8211156111af576111ae611119565b5b6111b882611108565b9050602081019050919050565b82818337600083830152505050565b60006111e76111e284611194565b611179565b90508281526020810184848401111561120357611202611103565b5b61120e8482856111c5565b509392505050565b600082601f83011261122b5761122a6110fe565b5b813561123b8482602086016111d4565b91505092915050565b60008060008060008060c0878903121561126157611260611033565b5b600061126f89828a016110e9565b965050602087013567ffffffffffffffff8111156112905761128f611038565b5b61129c89828a01611216565b955050604087013567ffffffffffffffff8111156112bd576112bc611038565b5b6112c989828a01611216565b945050606087013567ffffffffffffffff8111156112ea576112e9611038565b5b6112f689828a01611216565b935050608087013567ffffffffffffffff81111561131757611316611038565b5b61132389828a01611216565b92505060a087013567ffffffffffffffff81111561134457611343611038565b5b61135089828a01611216565b9150509295509295509295565b60008060008060008060c0878903121561137a57611379611033565b5b600087013567ffffffffffffffff81111561139857611397611038565b5b6113a489828a01611216565b965050602087013567ffffffffffffffff8111156113c5576113c4611038565b5b6113d189828a01611216565b955050604087013567ffffffffffffffff8111156113f2576113f1611038565b5b6113fe89828a01611216565b945050606087013567ffffffffffffffff81111561141f5761141e611038565b5b61142b89828a01611216565b935050608087013567ffffffffffffffff81111561144c5761144b611038565b5b61145889828a01611216565b92505060a087013567ffffffffffffffff81111561147957611478611038565b5b61148589828a01611216565b9150509295509295509295565b61149b816110c8565b82525050565b60006020820190506114b66000830184611492565b92915050565b6000602082840312156114d2576114d1611033565b5b60006114e0848285016110e9565b91505092915050565b600081519050919050565b600082825260208201905092915050565b60005b83811015611523578082015181840152602081019050611508565b60008484015250505050565b600061153a826114e9565b61154481856114f4565b9350611554818560208601611505565b61155d81611108565b840191505092915050565b600060c0820190508181036000830152611582818961152f565b90508181036020830152611596818861152f565b905081810360408301526115aa818761152f565b905081810360608301526115be818661152f565b905081810360808301526115d2818561152f565b905081810360a08301526115e6818461152f565b9050979650505050505050565b7f4f6e6c79207468652073757065722061646d696e2063616e206368616e67652060008201527f7468652073757065722061646d696e0000000000000000000000000000000000602082015250565b600061164f602f836114f4565b915061165a826115f3565b604082019050919050565b6000602082019050818103600083015261167e81611642565b9050919050565b7f556e617574686f72697a65643a204f6e6c792061646d696e2063616e2070657260008201527f666f726d207468697320616374696f6e00000000000000000000000000000000602082015250565b60006116e16030836114f4565b91506116ec82611685565b604082019050919050565b60006020820190508181036000830152611710816116d4565b9050919050565b7f556e617574686f72697a65643a204f6e6c7920746865207265636f7264206f7760008201527f6e65722063616e207570646174652074686973207265636f7264000000000000602082015250565b6000611773603a836114f4565b915061177e82611717565b604082019050919050565b600060208201905081810360008301526117a281611766565b9050919050565b7f4e487b7100000000000000000000000000000000000000000000000000000000600052602260045260246000fd5b600060028204905060018216806117f057607f821691505b602082108103611803576118026117a9565b5b50919050565b600081905092915050565b600061181f826114e9565b6118298185611809565b9350611839818560208601611505565b80840191505092915050565b60006118518284611814565b915081905092915050565b7f496e76616c696420456d706c6f79656520494400000000000000000000000000600082015250565b60006118926013836114f4565b915061189d8261185c565b602082019050919050565b600060208201905081810360008301526118c181611885565b9050919050565b60008190508160005260206000209050919050565b60006020601f8301049050919050565b600082821b905092915050565b60006008830261192a7fffffffffffffffffffffffffffffffffffffffffffffffffffffffffffffffff826118ed565b61193486836118ed565b95508019841693508086168417925050509392505050565b6000819050919050565b6000819050919050565b600061197b6119766119718461194c565b611956565b61194c565b9050919050565b6000819050919050565b61199583611960565b6119a96119a182611982565b8484546118fa565b825550505050565b600090565b6119be6119b1565b6119c981848461198c565b505050565b5b818110156119ed576119e26000826119b6565b6001810190506119cf565b5050565b601f821115611a3257611a03816118c8565b611a0c846118dd565b81016020851015611a1b578190505b611a2f611a27856118dd565b8301826119ce565b50505b505050565b600082821c905092915050565b6000611a5560001984600802611a37565b1980831691505092915050565b6000611a6e8383611a44565b9150826002028217905092915050565b611a87826114e9565b67ffffffffffffffff811115611aa057611a9f611119565b5b611aaa82546117d8565b611ab58282856119f1565b600060209050601f831160018114611ae85760008415611ad6578287015190505b611ae08582611a62565b865550611b48565b601f198416611af6866118c8565b60005b82811015611b1e57848901518255600182019150602085019450602081019050611af9565b86831015611b3b5784890151611b37601f891682611a44565b8355505b6001600288020188555050505b505050505050565b6000819050919050565b611b6b611b668261194c565b611b50565b82525050565b6000611b7d828a611814565b9150611b898289611814565b9150611b958288611814565b9150611ba18287611814565b9150611bad8286611814565b9150611bb98285611814565b9150611bc58284611b5a565b60208201915081905098975050505050505050565b600060e082019050611bef600083018a611492565b8181036020830152611c01818961152f565b90508181036040830152611c15818861152f565b90508181036060830152611c29818761152f565b90508181036080830152611c3d818661152f565b905081810360a0830152611c51818561152f565b905081810360c0830152611c65818461152f565b905098975050505050505050565b7f41646d696e20697320616c726561647920726567697374657265640000000000600082015250565b6000611ca9601b836114f4565b9150611cb482611c73565b602082019050919050565b60006020820190508181036000830152611cd881611c9c565b9050919050565b611ce88161105d565b82525050565b6000602082019050611d036000830184611cdf565b92915050565b7f4e6f206461746120666f756e6420666f72207468652070726f7669646564206b60008201527f6579000000000000000000000000000000000000000000000000000000000000602082015250565b6000611d656022836114f4565b9150611d7082611d09565b604082019050919050565b60006020820190508181036000830152611d9481611d58565b905091905056fea264697066735822122000b087d4ac76869b4fa9615ad10ed551a5f7e5fff04e42f06edb985f552beaa864736f6c634300081b0033",
  "linkReferences": {},
  "deployedLinkReferences": {}
}