{
    "_format": "hh-sol-artifact-1",
    "contractName": "EmployeeExperience",
    "sourceName": "contracts/EmployeeExperience.sol",
    "abi": [
        {
            "inputs": [],
            "stateMutability": "nonpayable",
            "type": "constructor"
        },
        {
            "anonymous": false,
            "inputs": [
                {
                    "indexed": false,
                    "internalType": "address",
                    "name": "admin",
                    "type": "address"
                }
            ],
            "name": "AdminRegistered",
            "type": "event"
        },
        {
            "anonymous": false,
            "inputs": [
                {
                    "indexed": false,
                    "internalType": "bytes32",
                    "name": "key",
                    "type": "bytes32"
                },
                {
                    "indexed": false,
                    "internalType": "string",
                    "name": "empId",
                    "type": "string"
                },
                {
                    "indexed": false,
                    "internalType": "string",
                    "name": "_name",
                    "type": "string"
                },
                {
                    "indexed": false,
                    "internalType": "string",
                    "name": "_company",
                    "type": "string"
                },
                {
                    "indexed": false,
                    "internalType": "string",
                    "name": "_startDate",
                    "type": "string"
                },
                {
                    "indexed": false,
                    "internalType": "string",
                    "name": "_endDate",
                    "type": "string"
                },
                {
                    "indexed": false,
                    "internalType": "string",
                    "name": "_pfNumber",
                    "type": "string"
                }
            ],
            "name": "ExperienceAdded",
            "type": "event"
        },
        {
            "anonymous": false,
            "inputs": [
                {
                    "indexed": false,
                    "internalType": "bytes32",
                    "name": "key",
                    "type": "bytes32"
                }
            ],
            "name": "ExperienceUpdated",
            "type": "event"
        },
        {
            "inputs": [
                {
                    "internalType": "string",
                    "name": "_empId",
                    "type": "string"
                },
                {
                    "internalType": "string",
                    "name": "_name",
                    "type": "string"
                },
                {
                    "internalType": "string",
                    "name": "_company",
                    "type": "string"
                },
                {
                    "internalType": "string",
                    "name": "_startDate",
                    "type": "string"
                },
                {
                    "internalType": "string",
                    "name": "_endDate",
                    "type": "string"
                },
                {
                    "internalType": "string",
                    "name": "_pfNumber",
                    "type": "string"
                }
            ],
            "name": "addExperience",
            "outputs": [
                {
                    "internalType": "bytes32",
                    "name": "",
                    "type": "bytes32"
                }
            ],
            "stateMutability": "nonpayable",
            "type": "function"
        },
        {
            "inputs": [
                {
                    "internalType": "address",
                    "name": "_newSuperAdmin",
                    "type": "address"
                }
            ],
            "name": "changeSuperAdmin",
            "outputs": [],
            "stateMutability": "nonpayable",
            "type": "function"
        },
        {
            "inputs": [
                {
                    "internalType": "bytes32",
                    "name": "_key",
                    "type": "bytes32"
                }
            ],
            "name": "getExperience",
            "outputs": [
                {
                    "internalType": "string",
                    "name": "",
                    "type": "string"
                },
                {
                    "internalType": "string",
                    "name": "",
                    "type": "string"
                },
                {
                    "internalType": "string",
                    "name": "",
                    "type": "string"
                },
                {
                    "internalType": "string",
                    "name": "",
                    "type": "string"
                },
                {
                    "internalType": "string",
                    "name": "",
                    "type": "string"
                },
                {
                    "internalType": "string",
                    "name": "",
                    "type": "string"
                }
            ],
            "stateMutability": "view",
            "type": "function"
        },
        {
            "inputs": [
                {
                    "internalType": "address",
                    "name": "_newAdmin",
                    "type": "address"
                }
            ],
            "name": "registerAdmin",
            "outputs": [],
            "stateMutability": "nonpayable",
            "type": "function"
        },
        {
            "inputs": [
                {
                    "internalType": "bytes32",
                    "name": "_key",
                    "type": "bytes32"
                },
                {
                    "internalType": "string",
                    "name": "_empId",
                    "type": "string"
                },
                {
                    "internalType": "string",
                    "name": "_newName",
                    "type": "string"
                },
                {
                    "internalType": "string",
                    "name": "_newCompany",
                    "type": "string"
                },
                {
                    "internalType": "string",
                    "name": "_newStartDate",
                    "type": "string"
                },
                {
                    "internalType": "string",
                    "name": "_newEndDate",
                    "type": "string"
                },
                {
                    "internalType": "string",
                    "name": "_newPfNumber",
                    "type": "string"
                }
            ],
            "name": "updateExperience",
            "outputs": [],
            "stateMutability": "nonpayable",
            "type": "function"
        }
    ],
    "bytecode": "0x6080604052348015600f57600080fd5b5033600360006101000a81548173ffffffffffffffffffffffffffffffffffffffff021916908373ffffffffffffffffffffffffffffffffffffffff1602179055506001806000600360009054906101000a900473ffffffffffffffffffffffffffffffffffffffff1673ffffffffffffffffffffffffffffffffffffffff1673ffffffffffffffffffffffffffffffffffffffff16815260200190815260200160002060006101000a81548160ff021916908315150217905550611dff806100d96000396000f3fe608060405234801561001057600080fd5b50600436106100575760003560e01c806341858c4b1461005c578063827e08ed14610078578063b064968914610094578063c38c5813146100c4578063ebee03bb146100e0575b600080fd5b61007660048036038101906100719190611098565b610115565b005b610092600480360381019061008d9190611241565b6101e9565b005b6100ae60048036038101906100a9919061138b565b61083c565b6040516100bb91906114cf565b60405180910390f35b6100de60048036038101906100d99190611098565b610a6a565b005b6100fa60048036038101906100f591906114ea565b610c14565b60405161010c96959493929190611596565b60405180910390f35b600360009054906101000a900473ffffffffffffffffffffffffffffffffffffffff1673ffffffffffffffffffffffffffffffffffffffff163373ffffffffffffffffffffffffffffffffffffffff16146101a5576040517f08c379a000000000000000000000000000000000000000000000000000000000815260040161019c90611693565b60405180910390fd5b80600360006101000a81548173ffffffffffffffffffffffffffffffffffffffff021916908373ffffffffffffffffffffffffffffffffffffffff16021790555050565b600160003373ffffffffffffffffffffffffffffffffffffffff1673ffffffffffffffffffffffffffffffffffffffff16815260200190815260200160002060009054906101000a900460ff16610275576040517f08c379a000000000000000000000000000000000000000000000000000000000815260040161026c90611725565b60405180910390fd5b3373ffffffffffffffffffffffffffffffffffffffff166002600089815260200190815260200160002060009054906101000a900473ffffffffffffffffffffffffffffffffffffffff1673ffffffffffffffffffffffffffffffffffffffff1614610316576040517f08c379a000000000000000000000000000000000000000000000000000000000815260040161030d906117b7565b60405180910390fd5b60008060008981526020019081526020016000206040518060c001604052908160008201805461034590611806565b80601f016020809104026020016040519081016040528092919081815260200182805461037190611806565b80156103be5780601f10610393576101008083540402835291602001916103be565b820191906000526020600020905b8154815290600101906020018083116103a157829003601f168201915b505050505081526020016001820180546103d790611806565b80601f016020809104026020016040519081016040528092919081815260200182805461040390611806565b80156104505780601f1061042557610100808354040283529160200191610450565b820191906000526020600020905b81548152906001019060200180831161043357829003601f168201915b5050505050815260200160028201805461046990611806565b80601f016020809104026020016040519081016040528092919081815260200182805461049590611806565b80156104e25780601f106104b7576101008083540402835291602001916104e2565b820191906000526020600020905b8154815290600101906020018083116104c557829003601f168201915b505050505081526020016003820180546104fb90611806565b80601f016020809104026020016040519081016040528092919081815260200182805461052790611806565b80156105745780601f1061054957610100808354040283529160200191610574565b820191906000526020600020905b81548152906001019060200180831161055757829003601f168201915b5050505050815260200160048201805461058d90611806565b80601f01602080910402602001604051908101604052809291908181526020018280546105b990611806565b80156106065780601f106105db57610100808354040283529160200191610606565b820191906000526020600020905b8154815290600101906020018083116105e957829003601f168201915b5050505050815260200160058201805461061f90611806565b80601f016020809104026020016040519081016040528092919081815260200182805461064b90611806565b80156106985780601f1061066d57610100808354040283529160200191610698565b820191906000526020600020905b81548152906001019060200180831161067b57829003601f168201915b5050505050815250509050866040516020016106b49190611873565b6040516020818303038152906040528051906020012081600001516040516020016106df9190611873565b6040516020818303038152906040528051906020012014610735576040517f08c379a000000000000000000000000000000000000000000000000000000000815260040161072c906118d6565b60405180910390fd5b6040518060c00160405280888152602001878152602001868152602001858152602001848152602001838152506000808a815260200190815260200160002060008201518160000190816107899190611aac565b50602082015181600101908161079f9190611aac565b5060408201518160020190816107b59190611aac565b5060608201518160030190816107cb9190611aac565b5060808201518160040190816107e19190611aac565b5060a08201518160050190816107f79190611aac565b509050507f3ec01db0e42b653a474cf78ab36aeb57c3c49f538472164b12ff8e2f52ddd5a78860405161082a91906114cf565b60405180910390a15050505050505050565b6000600160003373ffffffffffffffffffffffffffffffffffffffff1673ffffffffffffffffffffffffffffffffffffffff16815260200190815260200160002060009054906101000a900460ff166108ca576040517f08c379a00000000000000000000000000000000000000000000000000000000081526004016108c190611725565b60405180910390fd5b6000878787878787426040516020016108e99796959493929190611b9f565b6040516020818303038152906040528051906020012090506040518060c001604052808981526020018881526020018781526020018681526020018581526020018481525060008083815260200190815260200160002060008201518160000190816109559190611aac565b50602082015181600101908161096b9190611aac565b5060408201518160020190816109819190611aac565b5060608201518160030190816109979190611aac565b5060808201518160040190816109ad9190611aac565b5060a08201518160050190816109c39190611aac565b50905050336002600083815260200190815260200160002060006101000a81548173ffffffffffffffffffffffffffffffffffffffff021916908373ffffffffffffffffffffffffffffffffffffffff1602179055507fd184a73760b8ed2dfbd82d83b65fb9ec5ae2633b4c24904543082be60028965a81898989898989604051610a549796959493929190611c08565b60405180910390a1809150509695505050505050565b600160003373ffffffffffffffffffffffffffffffffffffffff1673ffffffffffffffffffffffffffffffffffffffff16815260200190815260200160002060009054906101000a900460ff16610af6576040517f08c379a0000000000000000000000000000000000000000000000000000000008152600401610aed90611725565b60405180910390fd5b600160008273ffffffffffffffffffffffffffffffffffffffff1673ffffffffffffffffffffffffffffffffffffffff16815260200190815260200160002060009054906101000a900460ff1615610b83576040517f08c379a0000000000000000000000000000000000000000000000000000000008152600401610b7a90611ced565b60405180910390fd5b60018060008373ffffffffffffffffffffffffffffffffffffffff1673ffffffffffffffffffffffffffffffffffffffff16815260200190815260200160002060006101000a81548160ff0219169083151502179055507fac0f15283d37631c15b481bc07dc402bcfc030956bcd94b5585f71d92e84c3da81604051610c099190611d1c565b60405180910390a150565b60608060608060608060008060008981526020019081526020016000206040518060c0016040529081600082018054610c4c90611806565b80601f0160208091040260200160405190810160405280929190818152602001828054610c7890611806565b8015610cc55780601f10610c9a57610100808354040283529160200191610cc5565b820191906000526020600020905b815481529060010190602001808311610ca857829003601f168201915b50505050508152602001600182018054610cde90611806565b80601f0160208091040260200160405190810160405280929190818152602001828054610d0a90611806565b8015610d575780601f10610d2c57610100808354040283529160200191610d57565b820191906000526020600020905b815481529060010190602001808311610d3a57829003601f168201915b50505050508152602001600282018054610d7090611806565b80601f0160208091040260200160405190810160405280929190818152602001828054610d9c90611806565b8015610de95780601f10610dbe57610100808354040283529160200191610de9565b820191906000526020600020905b815481529060010190602001808311610dcc57829003601f168201915b50505050508152602001600382018054610e0290611806565b80601f0160208091040260200160405190810160405280929190818152602001828054610e2e90611806565b8015610e7b5780601f10610e5057610100808354040283529160200191610e7b565b820191906000526020600020905b815481529060010190602001808311610e5e57829003601f168201915b50505050508152602001600482018054610e9490611806565b80601f0160208091040260200160405190810160405280929190818152602001828054610ec090611806565b8015610f0d5780601f10610ee257610100808354040283529160200191610f0d565b820191906000526020600020905b815481529060010190602001808311610ef057829003601f168201915b50505050508152602001600582018054610f2690611806565b80601f0160208091040260200160405190810160405280929190818152602001828054610f5290611806565b8015610f9f5780601f10610f7457610100808354040283529160200191610f9f565b820191906000526020600020905b815481529060010190602001808311610f8257829003601f168201915b5050505050815250509050600081602001515111610ff2576040517f08c379a0000000000000000000000000000000000000000000000000000000008152600401610fe990611da9565b60405180910390fd5b806000015181602001518260400151836060015184608001518560a001519650965096509650965096505091939550919395565b6000604051905090565b600080fd5b600080fd5b600073ffffffffffffffffffffffffffffffffffffffff82169050919050565b60006110658261103a565b9050919050565b6110758161105a565b811461108057600080fd5b50565b6000813590506110928161106c565b92915050565b6000602082840312156110ae576110ad611030565b5b60006110bc84828501611083565b91505092915050565b6000819050919050565b6110d8816110c5565b81146110e357600080fd5b50565b6000813590506110f5816110cf565b92915050565b600080fd5b600080fd5b6000601f19601f8301169050919050565b7f4e487b7100000000000000000000000000000000000000000000000000000000600052604160045260246000fd5b61114e82611105565b810181811067ffffffffffffffff8211171561116d5761116c611116565b5b80604052505050565b6000611180611026565b905061118c8282611145565b919050565b600067ffffffffffffffff8211156111ac576111ab611116565b5b6111b582611105565b9050602081019050919050565b82818337600083830152505050565b60006111e46111df84611191565b611176565b905082815260208101848484011115611200576111ff611100565b5b61120b8482856111c2565b509392505050565b600082601f830112611228576112276110fb565b5b81356112388482602086016111d1565b91505092915050565b600080600080600080600060e0888a0312156112605761125f611030565b5b600061126e8a828b016110e6565b975050602088013567ffffffffffffffff81111561128f5761128e611035565b5b61129b8a828b01611213565b965050604088013567ffffffffffffffff8111156112bc576112bb611035565b5b6112c88a828b01611213565b955050606088013567ffffffffffffffff8111156112e9576112e8611035565b5b6112f58a828b01611213565b945050608088013567ffffffffffffffff81111561131657611315611035565b5b6113228a828b01611213565b93505060a088013567ffffffffffffffff81111561134357611342611035565b5b61134f8a828b01611213565b92505060c088013567ffffffffffffffff8111156113705761136f611035565b5b61137c8a828b01611213565b91505092959891949750929550565b60008060008060008060c087890312156113a8576113a7611030565b5b600087013567ffffffffffffffff8111156113c6576113c5611035565b5b6113d289828a01611213565b965050602087013567ffffffffffffffff8111156113f3576113f2611035565b5b6113ff89828a01611213565b955050604087013567ffffffffffffffff8111156114205761141f611035565b5b61142c89828a01611213565b945050606087013567ffffffffffffffff81111561144d5761144c611035565b5b61145989828a01611213565b935050608087013567ffffffffffffffff81111561147a57611479611035565b5b61148689828a01611213565b92505060a087013567ffffffffffffffff8111156114a7576114a6611035565b5b6114b389828a01611213565b9150509295509295509295565b6114c9816110c5565b82525050565b60006020820190506114e460008301846114c0565b92915050565b600060208284031215611500576114ff611030565b5b600061150e848285016110e6565b91505092915050565b600081519050919050565b600082825260208201905092915050565b60005b83811015611551578082015181840152602081019050611536565b60008484015250505050565b600061156882611517565b6115728185611522565b9350611582818560208601611533565b61158b81611105565b840191505092915050565b600060c08201905081810360008301526115b0818961155d565b905081810360208301526115c4818861155d565b905081810360408301526115d8818761155d565b905081810360608301526115ec818661155d565b90508181036080830152611600818561155d565b905081810360a0830152611614818461155d565b9050979650505050505050565b7f4f6e6c79207468652073757065722061646d696e2063616e206368616e67652060008201527f7468652073757065722061646d696e0000000000000000000000000000000000602082015250565b600061167d602f83611522565b915061168882611621565b604082019050919050565b600060208201905081810360008301526116ac81611670565b9050919050565b7f556e617574686f72697a65643a204f6e6c792061646d696e2063616e2070657260008201527f666f726d207468697320616374696f6e00000000000000000000000000000000602082015250565b600061170f603083611522565b915061171a826116b3565b604082019050919050565b6000602082019050818103600083015261173e81611702565b9050919050565b7f556e617574686f72697a65643a204f6e6c7920746865207265636f7264206f7760008201527f6e65722063616e207570646174652074686973207265636f7264000000000000602082015250565b60006117a1603a83611522565b91506117ac82611745565b604082019050919050565b600060208201905081810360008301526117d081611794565b9050919050565b7f4e487b7100000000000000000000000000000000000000000000000000000000600052602260045260246000fd5b6000600282049050600182168061181e57607f821691505b602082108103611831576118306117d7565b5b50919050565b600081905092915050565b600061184d82611517565b6118578185611837565b9350611867818560208601611533565b80840191505092915050565b600061187f8284611842565b915081905092915050565b7f496e76616c696420456d706c6f79656520494400000000000000000000000000600082015250565b60006118c0601383611522565b91506118cb8261188a565b602082019050919050565b600060208201905081810360008301526118ef816118b3565b9050919050565b60008190508160005260206000209050919050565b60006020601f8301049050919050565b600082821b905092915050565b6000600883026119587fffffffffffffffffffffffffffffffffffffffffffffffffffffffffffffffff8261191b565b611962868361191b565b95508019841693508086168417925050509392505050565b6000819050919050565b6000819050919050565b60006119a96119a461199f8461197a565b611984565b61197a565b9050919050565b6000819050919050565b6119c38361198e565b6119d76119cf826119b0565b848454611928565b825550505050565b600090565b6119ec6119df565b6119f78184846119ba565b505050565b5b81811015611a1b57611a106000826119e4565b6001810190506119fd565b5050565b601f821115611a6057611a31816118f6565b611a3a8461190b565b81016020851015611a49578190505b611a5d611a558561190b565b8301826119fc565b50505b505050565b600082821c905092915050565b6000611a8360001984600802611a65565b1980831691505092915050565b6000611a9c8383611a72565b9150826002028217905092915050565b611ab582611517565b67ffffffffffffffff811115611ace57611acd611116565b5b611ad88254611806565b611ae3828285611a1f565b600060209050601f831160018114611b165760008415611b04578287015190505b611b0e8582611a90565b865550611b76565b601f198416611b24866118f6565b60005b82811015611b4c57848901518255600182019150602085019450602081019050611b27565b86831015611b695784890151611b65601f891682611a72565b8355505b6001600288020188555050505b505050505050565b6000819050919050565b611b99611b948261197a565b611b7e565b82525050565b6000611bab828a611842565b9150611bb78289611842565b9150611bc38288611842565b9150611bcf8287611842565b9150611bdb8286611842565b9150611be78285611842565b9150611bf38284611b88565b60208201915081905098975050505050505050565b600060e082019050611c1d600083018a6114c0565b8181036020830152611c2f818961155d565b90508181036040830152611c43818861155d565b90508181036060830152611c57818761155d565b90508181036080830152611c6b818661155d565b905081810360a0830152611c7f818561155d565b905081810360c0830152611c93818461155d565b905098975050505050505050565b7f41646d696e20697320616c726561647920726567697374657265640000000000600082015250565b6000611cd7601b83611522565b9150611ce282611ca1565b602082019050919050565b60006020820190508181036000830152611d0681611cca565b9050919050565b611d168161105a565b82525050565b6000602082019050611d316000830184611d0d565b92915050565b7f4e6f206461746120666f756e6420666f72207468652070726f7669646564206b60008201527f6579000000000000000000000000000000000000000000000000000000000000602082015250565b6000611d93602283611522565b9150611d9e82611d37565b604082019050919050565b60006020820190508181036000830152611dc281611d86565b905091905056fea2646970667358221220577f0b46965eb24e5c01cc266c14f5a735e372968d9577680db3bc1be3998e0264736f6c634300081b0033",
    "linkReferences": {},
    "deployedLinkReferences": {}
}